:100000000C9434000C9446000C9446000C9446006A
:100010000C9446000C9446000C9446000C945F002F
:100020000C9446000C9446000C9446000C94460038
:100030000C9446000C9446000C9446000C94460028
:100040000C9446000C9446000C9446000C94460018
:100050000C9446000C9446000C9446000C94460008
:100060000C9446000C94460011241FBECFEFD8E03C
:10007000DEBFCDBF21E0A0E0B1E001C01D92A23003
:10008000B207E1F70E9482000C948B000C940000F0
:10009000F894E0EBF0E08081826080831092B200FF
:1000A0008CE78093B300E0E7F0E08081826080839A
:1000B000E1EBF0E0808186608083789408951F9260
:1000C0000F920FB60F9211248F939F93809100018E
:1000D00090910101833691054CF01092010110922C
:1000E000000195B180E2892785B905C001969093FA
:1000F0000101809300019F918F910F900FBE0F908F
:100100001F90189584B1806284B985B18F7D85B9BF
:0A0110000E944800FFCFF894FFCFD3
:00000001FF
