:100000000C94B1000C94CE000C94CE000C94CE0055
:100010000C94CE000C94CE000C94CE000C94CE0028
:100020000C94CE000C94CE000C94CE000C94CE0018
:100030000C94CE000C94CE000C94CE000C94CE0008
:100040000C94CE000C94CE000C94CE000C94CE00F8
:100050000C94CE000C94CE000C94CE000C94CE00E8
:100060000C94CE000C94CE0000407A10F35A00A0FD
:10007000724E18090010A5D4E80000E87648170071
:1000800000E40B54020000CA9A3B000000E1F505B1
:10009000000080969800000040420F000000A086FB
:1000A00001000000102700000000E803000000002D
:1000B0006400000000000A000000000001000000D1
:1000C00000002C76D888DC674F0823DFC1DFAE59EB
:1000D000E1B1B796E5E3E453C63AE651997696E87E
:1000E000E6C28426EB898C9B62ED407C6FFCEFBC02
:1000F0009C9F40F2BAA56FA5F490055A2AF75C932D
:100100006B6CF9676DC11BFCE0E40D47FEF520E662
:10011000B500D0ED902E0300943577050080841E45
:10012000080000204E0A000000C80C333333330FA0
:10013000986E12831141EF8D2114893BE65516CF3D
:10014000FEE6DB18D1844B381BF77C1D901DA4BB49
:10015000E424203284725E228100C9F124ECA1E5FE
:100160003D2711241FBECFEFD8E0DEBFCDBF11E089
:10017000A0E0B1E0EAE5FAE102C005900D92A038F6
:10018000B107D9F721E0A0E8B1E001C01D92A53B7D
:10019000B207E1F70E94A7040C942B0D0C94000009
:1001A0000F931F93CF93DF93CDB7DEB708EB10E02B
:1001B00089EB90E0FC01108280E090E0A0E0B0E4E8
:1001C0009C01AD0160E070E080EC91E40E94FA05D2
:1001D000DC01CB01BC01CD010E946C06DC01CB012E
:1001E000F80180830000DF91CF911F910F91089556
:1001F000CF93DF9300D0CDB7DEB78A838CEB90E04E
:10020000FC0110828CEB90E024EAFC0120830000CA
:100210008CEB90E0FC0180818823D4F789EB90E09F
:10022000FC018081882F90E0887F9927089711F042
:1002300081E020C08BEB90E02A81FC0120838CEBD5
:1002400090E024E8FC01208300008CEB90E0FC01AE
:1002500080818823D4F789EB90E0FC018081887F3E
:1002600089838981883129F08981803411F081E086
:1002700001C080E00F900F90DF91CF910895CF9350
:10028000DF931F92CDB7DEB789838BEB90E0298196
:10029000FC0120838CEB90E024E8FC01208300002B
:1002A0008CEB90E0FC0180818823D4F789EB90E00F
:1002B000FC018081882F90E0887F9927889711F032
:1002C00081E001C080E00F90DF91CF910895CF933E
:1002D000DF93CDB7DEB78CEB90E024ECFC012083FC
:1002E00000008CEB90E0FC0180818823D4F78BEB3D
:1002F00090E0FC018081DF91CF910895CF93DF934F
:10030000CDB7DEB78CEB90E024E8FC012083000041
:100310008CEB90E0FC0180818823D4F78BEB90E09C
:10032000FC018081DF91CF910895CF93DF93CDB70A
:10033000DEB78CEB90E024E9FC0120830000DF9124
:10034000CF910895CF93DF93CDB7DEB7AB970FB6BC
:10035000F894DEBF0FBECDBF80E091E00E94C905DA
:1003600080E50E94F80080E00E943F010E94950114
:1003700081E50E94F8000E947E0189830E94950118
:100380008981803A09F097C180E50E94F80087E0F2
:100390000E943F0180E00E943F010E94950189E197
:1003A00091E00E94C90580E50E94F8008DE30E945B
:1003B0003F0180E10E943F010E94950189E191E0A7
:1003C0000E94C90580E090E0A0E8BFE38A839B8398
:1003D000AC83BD8320E030E04AE755E46A817B814D
:1003E0008C819D810E945207DC01CB018AA39BA3D3
:1003F000ACA3BDA320E030E040E85FE36AA17BA1AD
:100400008CA19DA10E94F50588232CF481E090E049
:100410009FA38EA33FC020E03FEF4FE757E46AA1C0
:100420007BA18CA19DA10E944D0718164CF520E0E0
:1004300030E040E251E46A817B818C819D810E94A1
:100440005207DC01CB01BC01CD010E946C06DC012E
:10045000CB019FA38EA30FC080E991E099A788A745
:1004600088A599A50197F1F799A788A78EA19FA1C3
:1004700001979FA38EA38EA19FA1892B69F714C01A
:100480006AA17BA18CA19DA10E946C06DC01CB011D
:100490009FA38EA38EA19FA19BA78AA78AA59BA598
:1004A0000197F1F79BA78AA780E50E94F8008EE3E9
:1004B0000E943F0180E00E943F010E94950189E176
:1004C00091E00E94C90580E090E0A0E8BFE38E8340
:1004D0009F83A887B98720E030E04AE755E46E8122
:1004E0007F81888599850E945207DC01CB01888F26
:1004F000998FAA8FBB8F20E030E040E85FE3688DE2
:10050000798D8A8D9B8D0E94F50588232CF481E0DE
:1005100090E09D8F8C8F3FC020E03FEF4FE757E486
:10052000688D798D8A8D9B8D0E944D0718164CF52C
:1005300020E030E040E251E46E817F81888599853A
:100540000E945207DC01CB01BC01CD010E946C0668
:10055000DC01CB019D8F8C8F0FC080E991E09F8FD4
:100560008E8F8E8D9F8D0197F1F79F8F8E8F8C8D43
:100570009D8D01979D8F8C8F8C8D9D8D892B69F71B
:1005800014C0688D798D8A8D9B8D0E946C06DC016C
:10059000CB019D8F8C8F8C8D9D8D99A388A388A175
:1005A00099A10197F1F799A388A380E50E94F8002B
:1005B0008DE30E943F018CE10E943F010E94950162
:1005C00089E191E00E94C90580E090E0A0E8BFE3E6
:1005D0008A879B87AC87BD8720E030E04AE755E4F7
:1005E0006A857B858C859D850E945207DC01CB0145
:1005F0008E879F87A88BB98B20E030E040E85FE3CF
:100600006E857F85888999890E94F50588232CF459
:1006100081E090E09B8B8A8B3FC020E03FEF4FE76B
:1006200057E46E857F85888999890E944D07181641
:100630004CF520E030E040E251E46A857B858C8512
:100640009D850E945207DC01CB01BC01CD010E94B7
:100650006C06DC01CB019B8B8A8B0FC080E991E09B
:100660009D8B8C8B8C899D890197F1F79D8B8C8B51
:100670008A899B8901979B8B8A8B8A899B89892B85
:1006800069F714C06E857F85888999890E946C06F8
:10069000DC01CB019B8B8A8B8A899B899F8B8E8BFC
:1006A0008E899F890197F1F79F8B8E8B8FE191E067
:1006B0000E94C90504C082E391E00E94C9050000C0
:1006C000AB960FB6F894DEBF0FBECDBFDF91CF91D2
:1006D0000895CF93DF93CDB7DEB780E50E94F80091
:1006E0008AE10E943F010E94950181E50E94F80085
:1006F0000E946701809380010E94670180938101BD
:100700000E946701809382010E94670180938301A8
:100710000E946701809384010E947E01809385017D
:100720000E94950180918101882F90E0382F222727
:1007300080918001882F90E0822B932B99230CF4D9
:100740000F96959587959595879595958795959508
:10075000879590938B0180938A0180918301882FE4
:1007600090E0382F222780918201882F90E0822B01
:10077000932B99230CF40F969595879595958795CE
:100780009595879595958795909389018093880194
:1007900080918501882F90E0382F22278091840155
:1007A000882F90E0822B932B99230CF40F9695952C
:1007B0008795959587959595879595958795909328
:1007C0008701809386010000DF91CF9108950F93F8
:1007D0001F93CF93DF93CDB7DEB7809186019091C1
:1007E0008701092E000CAA0BBB0BBC01CD010E9496
:1007F0009D06DC01CB010CE811E022E043E0BC01E6
:10080000CD010E94E1078CE891E0892F8F938CE85D
:1008100091E08F9380E491E0892F8F9380E491E0C1
:100820008F931F9284E18F9381EA91E0892F8F93B8
:1008300081EA91E08F930E9401088DB79EB70896D8
:100840000FB6F894DEBF0FBECDBF81EA91E00E94E3
:10085000C9058091880190918901092E000CAA0B8D
:10086000BB0BBC01CD010E949D06DC01CB010CE855
:1008700011E022E043E0BC01CD010E94E1078CE8D9
:1008800091E0892F8F938CE891E08F9380E591E040
:10089000892F8F9380E591E08F931F9284E18F934E
:1008A00081EA91E0892F8F9381EA91E08F930E94F2
:1008B00001088DB79EB708960FB6F894DEBF0FBE3D
:1008C000CDBF81EA91E00E94C90580918A01909193
:1008D0008B01092E000CAA0BBB0BBC01CD010E94A1
:1008E0009D06DC01CB010CE811E022E043E0BC01F5
:1008F000CD010E94E1078CE891E0892F8F938CE86D
:1009000091E08F938DE591E0892F8F938DE591E0B4
:100910008F931F9284E18F9381EA91E0892F8F93C7
:1009200081EA91E08F930E9401088DB79EB70896E7
:100930000FB6F894DEBF0FBECDBF81EA91E00E94F2
:10094000C9050000DF91CF911F910F910895CF93BA
:10095000DF93CDB7DEB72E970FB6F894DEBF0FBE8C
:10096000CDBF0E94D00060E875E280E090E00E9478
:1009700036058AE691E00E94C9050E94A2010E9404
:1009800069030E94E70380E090E0A0E2B1E489837C
:100990009A83AB83BC8320E030E04AE755E4698169
:1009A0007A818B819C810E945207DC01CB018D836F
:1009B0009E83AF83B88720E030E040E85FE36D813D
:1009C0007E818F8198850E94F50588232CF481E033
:1009D00090E09A8789873FC020E03FEF4FE757E4D8
:1009E0006D817E818F8198850E944D0718164CF588
:1009F00020E030E040E251E469817A818B819C8182
:100A00000E945207DC01CB01BC01CD010E946C06A3
:100A1000DC01CB019A8789870FC080E991E09C8730
:100A20008B878B859C850197F1F79C878B878985C0
:100A30009A8501979A87898789859A85892B69F78D
:100A400014C06D817E818F8198850E946C06DC01C7
:100A5000CB019A87898789859A859E878D878D8521
:100A60009E850197F1F79E878D8789CF0F931F93FE
:100A7000CF93DF9300D000D0CDB7DEB769837A8300
:100A80008B839C8381EC90E021EC30E0F9012081A4
:100A90002861FC01208382EC90E022EC30E0F90137
:100AA00020812660FC01208304EC10E089819A817A
:100AB000AB81BC81880F991FAA1FBB1F880F991F8C
:100AC000AA1FBB1F880F991FAA1FBB1F880F991F42
:100AD000AA1FBB1F9C01AD0180E094E2A4EFB0E02F
:100AE000BC01CD010E94BF07DA01C9018150F801A4
:100AF000808305EC10E089819A81AB81BC81880FED
:100B0000991FAA1FBB1F880F991FAA1FBB1F880F01
:100B1000991FAA1FBB1F880F991FAA1FBB1F9C01EB
:100B2000AD0180E094E2A4EFB0E0BC01CD010E94F1
:100B3000BF07DA01C9010197A109B109892F9A2FCD
:100B4000AB2FBB27F801808300000F900F900F9010
:100B50000F90DF91CF911F910F910895CF93DF9365
:100B60001F92CDB7DEB78983000080EC90E0FC01D6
:100B70008081882F90E080729927892BB1F386ECD1
:100B800090E02981FC01208300000F90DF91CF913C
:100B90000895CF93DF9300D000D0CDB7DEB79C830C
:100BA0008B831A8219820FC089819A812B813C81A3
:100BB000820F931FFC0180810E94AE0589819A817A
:100BC00001969A83898389819A812B813C81820F46
:100BD000931FFC018081882339F700000F900F904C
:100BE0000F900F90DF91CF9108950E94D80608F4DE
:100BF00081E008950E940E060C9413070E940C07D2
:100C000058F00E94050740F029F45F3F29F00C944A
:100C1000FC0651110C9447070C9402070E9424070C
:100C200068F39923B1F3552391F3951B550BBB271B
:100C3000AA2762177307840738F09F5F5F4F220F60
:100C4000331F441FAA1FA9F335D00E2E3AF0E0E857
:100C500032D091505040E695001CCAF72BD0FE2FA1
:100C600029D0660F771F881FBB1F26173707480735
:100C7000AB07B0E809F0BB0B802DBF01FF279358ED
:100C80005F4F3AF09E3F510578F00C94FC060C94AF
:100C900047075F3FE4F3983ED4F3869577956795D1
:100CA000B795F7959F5FC9F7880F911D9695879522
:100CB00097F90895E1E0660F771F881FBB1F621741
:100CC00073078407BA0720F0621B730B840BBA0BFF
:100CD000EE1F88F7E09508950E942C0788F09F5733
:100CE00098F0B92F9927B751B0F0E1F0660F771F50
:100CF000881F991F1AF0BA95C9F714C0B13091F046
:100D00000E944607B1E008950C944607672F782F9C
:100D10008827B85F39F0B93FCCF38695779567950A
:100D2000B395D9F73EF490958095709561957F4F76
:100D30008F4F9F4F0895E89409C097FB3EF490951C
:100D40008095709561957F4F8F4F9F4F9923A9F0A4
:100D5000F92F96E9BB279395F69587957795679533
:100D6000B795F111F8CFFAF4BB0F11F460FF1BC077
:100D70006F5F7F4F8F4F9F4F16C0882311F096E90A
:100D800011C0772321F09EE8872F762F05C06623B8
:100D900071F096E8862F70E060E02AF09A95660F71
:100DA000771F881FDAF7880F9695879597F908952A
:100DB000990F0008550FAA0BE0E8FEEF161617066C
:100DC000E807F907C0F012161306E407F50798F0D4
:100DD000621B730B840B950B39F40A2661F0232BED
:100DE000242B252B21F408950A2609F4A140A69569
:100DF0008FEF811D811D089597F99F6780E870E04E
:100E000060E008959FEF80EC089500240A94161680
:100E1000170618060906089500240A9412161306E8
:100E2000140605060895092E0394000C11F4882376
:100E300052F0BB0F40F4BF2B11F460FF04C06F5F92
:100E40007F4F8F4F9F4F089557FD9058440F551F68
:100E500059F05F3F71F04795880F97FB991F61F03C
:100E60009F3F79F087950895121613061406551FB3
:100E7000F2CF4695F1DF08C0161617061806991F1F
:100E8000F1CF86957105610508940895E894BB2714
:100E900066277727CB0197F908950E94D80608F4B2
:100EA0008FEF08950E9465070C9413070E940507B1
:100EB00038F00E940C0720F0952311F00C94FC06EA
:100EC0000C94020711240C9447070E94240770F326
:100ED000959FC1F3950F50E0551F629FF001729FDF
:100EE000BB27F00DB11D639FAA27F00DB11DAA1FEE
:100EF000649F6627B00DA11D661F829F2227B00D3B
:100F0000A11D621F739FB00DA11D621F839FA00DC5
:100F1000611D221F749F3327A00D611D231F849F15
:100F2000600D211D822F762F6A2F11249F5750406C
:100F30009AF0F1F088234AF0EE0FFF1FBB1F661FE7
:100F4000771F881F91505040A9F79E3F510580F0B0
:100F50000C94FC060C9447075F3FE4F3983ED4F3EF
:100F6000869577956795B795F795E7959F5FC1F754
:100F7000FE2B880F911D9695879597F90895A1E20C
:100F80001A2EAA1BBB1BFD010DC0AA1FBB1FEE1F03
:100F9000FF1FA217B307E407F50720F0A21BB30B4E
:100FA000E40BF50B661F771F881F991F1A9469F7CA
:100FB00060957095809590959B01AC01BD01CF0126
:100FC0000895EF920F931F93CF93DF93E80147FDAE
:100FD00002C034E001C034E1042E000C550B57FF71
:100FE00003C0519541955109E32E022F242FAE01E4
:100FF0000E94120ACE01DF91CF911F910F91EF90C5
:101000000895AEE0B0E0E7E0F8E00C94020D0D8941
:101010001E898F89988D26E02C831A83098397FF78
:1010200002C080E090E801979E838D83AE01455E0B
:101030005F4F698D7A8DCE0101960E9431084D81F6
:101040005E8157FD0AC02F813885421753070CF483
:101050009A01F801E20FF31F10822E96E4E00C943F
:101060001E0DABE0B0E0E7E3F8E00C94F40C6C018B
:101070007B018A01FC0117821682838181FFCCC12A
:10108000CE0101963C01F6019381F70193FD859114
:1010900093FF81917F01882309F4BAC1853239F425
:1010A00093FD859193FF81917F01853229F4B601EB
:1010B00090E00E945A0CE7CF912C212C312CFFE1BB
:1010C000F315D8F08B3279F038F4803279F083322E
:1010D000A1F4232D20611DC08D3261F0803369F4AD
:1010E000232D216016C0832D8260382EE32DE4600D
:1010F0003E2E2AC0F32DF8601DC037FC2DC020ED18
:10110000280F2A3040F08E32B9F436FC81C1232DED
:101110002064322E19C036FE06C08AE0989E200D4B
:101120001124922E11C0EAE02E9E200D1124222EB1
:10113000F32DF0623F2E08C08C3621F4832D806899
:10114000382E02C0883641F4F70193FD859193FF54
:1011500081917F018111B3CF982F9F7D955493305A
:1011600028F40C5F1F4F9FE399830DC0833631F045
:10117000833771F0833509F059C021C0F8018081AF
:1011800089830E5F1F4F88248394912C530113C0D1
:101190002801F2E04F0E511CF801A080B18036FE0C
:1011A00003C0692D70E002C06FEF7FEFC5010E94A0
:1011B0004F0C4C018201F32DFF773F2E16C0280102
:1011C00022E0420E511CF801A080B18036FE03C01F
:1011D000692D70E002C06FEF7FEFC5010E94440CE3
:1011E0004C01F32DF0683F2E820133FC1BC0822D91
:1011F00090E088169906B0F4B60180E290E00E9473
:101200005A0C2A94F4CFF50137FC859137FE819171
:101210005F01B60190E00E945A0C21102A9421E04F
:10122000821A91088114910471F7E8C0843611F094
:10123000893641F5F80137FE07C0608171818281EE
:1012400093810C5F1F4F08C060817181072E000CD5
:10125000880B990B0E5F1F4FF32DFF763F2E97FFE4
:1012600009C090958095709561957F4F8F4F9F4FE6
:10127000F0683F2E2AE030E0A3010E94960C882EF1
:10128000861845C0853731F4232D2F7EB22E2AE0F3
:1012900030E025C0932D997FB92E8F36C1F018F418
:1012A000883579F0B5C0803719F0883721F0B0C0A3
:1012B000E92FE061BE2EB4FE0DC0FB2DF460BF2E01
:1012C00009C034FE0AC0292F2660B22E06C028E0CD
:1012D00030E005C020E130E002C020E132E0F8015A
:1012E000B7FE07C060817181828193810C5F1F4FBF
:1012F00006C06081718180E090E00E5F1F4FA30106
:101300000E94960C882E8618FB2DFF773F2E36FE06
:101310000DC0232D2E7FA22E891458F434FE0BC04D
:1013200032FC09C0832D8E7EA82E05C0B82CA32CBC
:1013300003C0B82C01C0B92CA4FE0FC0FE01E80DFB
:10134000F11D8081803321F49A2D997EA92E09C048
:10135000A2FE06C0B394B39404C08A2D867809F027
:10136000B394A3FC11C0A0FE06C0B21488F4280CEC
:10137000922C9B180EC0B21460F4B60180E290E08B
:101380000E945A0CB394F7CFB21418F42B1802C071
:10139000982C212CA4FE10C0B60180E390E00E949E
:1013A0005A0CA2FE17C0A1FC03C088E790E002C05F
:1013B00088E590E0B6010CC08A2D867859F0A1FE30
:1013C00002C08BE201C080E2A7FC8DE2B60190E092
:1013D0000E945A0C891438F4B60180E390E00E9410
:1013E0005A0C9A94F7CF8A94F301E80DF11D80818D
:1013F000B60190E00E945A0C8110F5CF222009F42A
:1014000042CEB60180E290E00E945A0C2A94F6CFB8
:10141000F6018681978102C08FEF9FEF2B96E2E164
:101420000C94100DA9E0B0E0E8E1FAE00C94FA0C9D
:101430006A01122FB02E2BE3201720F0FF24F39423
:10144000F00E02C02CE3F22E0F2D27E0AE014F5F0D
:101450005F4F0E946C0BBC014981842F89708130E1
:1014600031F0E1FC06C0E0FE06C090E205C09DE25E
:1014700003C09BE201C090E05E2D507143FF3CC071
:10148000911102C083E001C084E0811718F4212F7C
:10149000281B01C020E051110BC0F601822F30E261
:1014A000882319F031938150FBCFC20ED11C20E06C
:1014B000992329F0D6019C93F60131966F01C6015C
:1014C0000396E2FE0AC03EE4D6013C9341E4119645
:1014D0004C93119712963C9306C03EE6F60130837A
:1014E00041E641833283FC01322F40E2332309F489
:1014F00042C041933150FACF42FF44C0911102C023
:1015000083E001C084E0811718F4212F281B01C05B
:1015100020E051110BC0F601822F30E2882319F030
:1015200031938150FBCFC20ED11C20E0992329F0CA
:10153000D6019C93F60131966F01C6010396E2FE37
:101540000BC039E4D6013C933EE411963C931197CD
:1015500036E412963C9307C039E6F60130833EE646
:10156000318336E63283FC01322F40E2332319F017
:1015700041933150FBCFFC01E20FF11D10828EEF41
:101580009FEFA6C021E030E0911102C020E030E0E2
:10159000161617061CF4FB01319602C0E1E0F0E0DC
:1015A0002E0F3F1FBB2021F0EB2DF0E0319602C043
:1015B000E0E0F0E02E0F3F1FE12FF0E02E173F0795
:1015C0001CF4121B212F01C020E08E2D887159F4CC
:1015D000F601822F30E2882319F031938150FBCF3E
:1015E000C20ED11C20E0992329F0D6019C93F6016C
:1015F00031966F0151110BC0F601822F90E38823C1
:1016000019F091938150FBCFC20ED11C20E00F2D19
:10161000060F9A81342F307144FF03C0913309F4CF
:101620000150101624F4093018F008E001C001E060
:10163000AB0177FF02C040E050E0FB01E41BF50B7B
:10164000A1E0B0E0AC0FBD1FEA0FFB1F8EE2A82E99
:101650004B01801A91080B2D10E01195019511098D
:101660004F3FBFEF5B0721F4D601AC9211966D019D
:10167000641775072CF08416950614F4818101C057
:1016800080E3415051093196D60111967D014017F2
:10169000510724F0D6018C936701E2CF64177507D8
:1016A00039F4963320F4953319F4311101C081E3F4
:1016B000F6018083F701822F90E2882319F091933D
:1016C0008150FBCFF701E20FF11D108280E090E026
:1016D0002996ECE00C94160D283008F027E033270B
:1016E000DA01990F311D87FD916000966105710542
:1016F00039F432602E5F3D9330E32A95E1F7089587
:101700009F3F30F080387105610509F03C5F3C5F18
:101710003D93913008F08068911DDF93CF931F9324
:101720000F93FF92EF92192F987F9695E92F969538
:101730009695E90FFF27EE53FF4F99273327EE24A5
:10174000FF24A701E70105900894079428F4360FB9
:10175000E71EF81E491F511D660F771F881F991F2E
:101760000694A1F70590079428F4E70EF81E491F88
:10177000561FC11D770F881F991F661F0694A1F77A
:101780000590079428F4F80E491F561FC71FD11D56
:10179000880F991F661F771F0694A1F7059007947D
:1017A00020F4490F561FC71FD81F990F661F771FB8
:1017B000881F0694A9F784911095177041F0D6956B
:1017C000C79557954795F794E7941A95C1F7E8E6BA
:1017D000F0E068941590159135916591959105907B
:1017E0007FE27395E118F10A430B560BC90BD00940
:1017F000C0F7E10CF11E431F561FC91FD01D7EF418
:10180000703311F48A95E6CFE894015030F0080F58
:101810000AF40027021708F4202F2395022F7A33A9
:1018200028F079E37D932A95E9F710C07D932A95F6
:1018300089F6069497956795379517951794E1184B
:10184000F10A430B560BC90BD00998F023957E91F2
:1018500073957A3308F070E37C932013B8F77E9188
:1018600070617D9330F0839571E37D9370E32A95E9
:10187000E1F71124EF90FF900F911F91CF91DF912D
:10188000992787FD90950895FC010590615070405F
:101890000110D8F7809590958E0F9F1F0895FC0139
:1018A0006150704001900110D8F7809590958E0F8F
:1018B0009F1F08950F931F93CF93DF93FB01238105
:1018C00021FD03C08FEF9FEF2CC022FF16C0468181
:1018D0005781248135814217530744F4A081B18197
:1018E0009D012F5F3F4F318320838C932681378169
:1018F0002F5F3F4F3783268314C08B01EC01FB0120
:101900000084F185E02D0995892BE1F6D801169622
:101910008D919C911797019617969C938E9316978D
:10192000CE01DF91CF911F910F910895FA01AA275F
:10193000283051F1203181F1E8946F936E7F6E5F12
:101940007F4F8F4F9F4FAF4FB1E03ED0B4E03CD0C0
:10195000670F781F891F9A1FA11D680F791F8A1FA3
:10196000911DA11D6A0F711D811D911DA11D20D00A
:1019700009F468943F912AE0269F11243019305DC4
:101980003193DEF6CF010895462F4770405D4193B5
:10199000B3E00FD0C9F7F6CF462F4F70405D4A3302
:1019A00018F0495D31FD4052419302D0A9F7EACFCA
:1019B000B4E0A6959795879577956795BA95C9F7F9
:1019C00000976105710508959B01AC010A2E0694EC
:1019D0005795479537952795BA95C9F7620F731FA5
:1019E000841F951FA01D08952F923F924F925F92E2
:1019F0006F927F928F929F92AF92BF92CF92DF921F
:101A0000EF92FF920F931F93CF93DF93CDB7DEB783
:101A1000CA1BDB0B0FB6F894DEBF0FBECDBF099417
:101A20002A88398848885F846E847D848C849B846E
:101A3000AA84B984C884DF80EE80FD800C811B817C
:101A4000AA81B981CE0FD11D0FB6F894DEBF0FBEAB
:0A1A5000CDBFED010895F894FFCF1B
:101A5A000A0D20424E4F30353520496E697469614E
:101A6A006C697A6174696F6E002E2E2E2E2E002EEE
:101A7A002E2E2E2E436F6D706C657465640A0D0AE6
:101A8A000D002E2E2E2E2E4661696C65640A0D00FD
:101A9A000A0D20582D617869733A202573092000B0
:101AAA00592D617869733A2025730920005A2D61EE
:101ABA007869733A2025730920000A0D20424E4F97
:101ACA0030353520494D552054657374200A0D0070
:00000001FF
