S015000050574D5F546573745F333238502E73726563D0
S11300000C9434000C9446000C9446000C94460066
S11300100C9446000C9446000C9446000C94460044
S11300200C9446000C9446000C9446000C94460034
S11300300C9446000C9446000C9446000C94460024
S11300400C9446000C9446000C9446000C94460014
S11300500C9446000C9446000C9446000C94460004
S11300600C9446000C94460011241FBECFEFD8E038
S1130070DEBFCDBF21E0A0E0B1E001C01D92A230FF
S1130080B207E1F70E947D000C94C8000C940000B4
S113009084B18E6084B98AB188668AB9E0E8F0E0F8
S11300A08081826A808382EE94E0909387008093BB
S11300B0860084B5836A84BDE0EBF0E08081836AC6
S11300C08083E1E8F0E080818C61808385B5846081
S11300D085BDE1EBF0E080818660808317BC18BCAD
S11300E0109289001092880010928B0010928A005E
S11300F01092B3001092B40008950E944800109228
S11301000101109200013BC087BDE0E0F1E0808175
S113011088BD80910001909101019C01220F331F41
S1130120220F331F820F931F9093890080938800BE
S113013080910001909101019C01220F331F220F35
S1130140331F820F931F90938B0080938A008081CA
S11301508093B30080818093B4002FEF81EE94E00C
S1130160215080409040E1F700C0000080910001E0
S11301709091010101969093010180930001809177
S11301800001909101018A3F91050CF4BDCFB7CFD6
S1070190F894FFCF0D
S9030000FC
